{
  "contractName": "Marketplace",
  "abi": [
    {
      "constant": true,
      "inputs": [
        {
          "name": "",
          "type": "uint256"
        }
      ],
      "name": "productByIDs",
      "outputs": [
        {
          "name": "pid",
          "type": "uint256"
        },
        {
          "name": "productName",
          "type": "string"
        },
        {
          "name": "productQuantity",
          "type": "uint256"
        },
        {
          "name": "price",
          "type": "uint256"
        },
        {
          "name": "sid",
          "type": "uint256"
        }
      ],
      "payable": false,
      "stateMutability": "view",
      "type": "function"
    },
    {
      "constant": true,
      "inputs": [
        {
          "name": "",
          "type": "address"
        }
      ],
      "name": "storeOwners",
      "outputs": [
        {
          "name": "",
          "type": "bool"
        }
      ],
      "payable": false,
      "stateMutability": "view",
      "type": "function"
    },
    {
      "constant": true,
      "inputs": [
        {
          "name": "",
          "type": "address"
        }
      ],
      "name": "admins",
      "outputs": [
        {
          "name": "",
          "type": "bool"
        }
      ],
      "payable": false,
      "stateMutability": "view",
      "type": "function"
    },
    {
      "constant": false,
      "inputs": [],
      "name": "renounceOwnership",
      "outputs": [],
      "payable": false,
      "stateMutability": "nonpayable",
      "type": "function"
    },
    {
      "constant": true,
      "inputs": [
        {
          "name": "",
          "type": "address"
        },
        {
          "name": "",
          "type": "uint256"
        }
      ],
      "name": "storefrontIDsByOwnerAddress",
      "outputs": [
        {
          "name": "",
          "type": "uint256"
        }
      ],
      "payable": false,
      "stateMutability": "view",
      "type": "function"
    },
    {
      "constant": true,
      "inputs": [
        {
          "name": "",
          "type": "uint256"
        },
        {
          "name": "",
          "type": "uint256"
        }
      ],
      "name": "productListBySIDs",
      "outputs": [
        {
          "name": "",
          "type": "uint256"
        }
      ],
      "payable": false,
      "stateMutability": "view",
      "type": "function"
    },
    {
      "constant": true,
      "inputs": [],
      "name": "owner",
      "outputs": [
        {
          "name": "",
          "type": "address"
        }
      ],
      "payable": false,
      "stateMutability": "view",
      "type": "function"
    },
    {
      "constant": true,
      "inputs": [
        {
          "name": "",
          "type": "uint256"
        }
      ],
      "name": "storefrontByIDs",
      "outputs": [
        {
          "name": "sid",
          "type": "uint256"
        },
        {
          "name": "storeName",
          "type": "string"
        },
        {
          "name": "storeOwner",
          "type": "address"
        },
        {
          "name": "storeBalance",
          "type": "uint256"
        }
      ],
      "payable": false,
      "stateMutability": "view",
      "type": "function"
    },
    {
      "constant": false,
      "inputs": [
        {
          "name": "_newOwner",
          "type": "address"
        }
      ],
      "name": "transferOwnership",
      "outputs": [],
      "payable": false,
      "stateMutability": "nonpayable",
      "type": "function"
    },
    {
      "constant": false,
      "inputs": [
        {
          "name": "_recipient",
          "type": "address"
        }
      ],
      "name": "destroyAndSend",
      "outputs": [],
      "payable": false,
      "stateMutability": "nonpayable",
      "type": "function"
    },
    {
      "inputs": [],
      "payable": false,
      "stateMutability": "nonpayable",
      "type": "constructor"
    },
    {
      "anonymous": false,
      "inputs": [
        {
          "indexed": false,
          "name": "adminAddress",
          "type": "address"
        }
      ],
      "name": "AddedAdmin",
      "type": "event"
    },
    {
      "anonymous": false,
      "inputs": [
        {
          "indexed": false,
          "name": "adminAddress",
          "type": "address"
        }
      ],
      "name": "RemovedAdmin",
      "type": "event"
    },
    {
      "anonymous": false,
      "inputs": [
        {
          "indexed": false,
          "name": "ownerAddress",
          "type": "address"
        }
      ],
      "name": "AddedOwner",
      "type": "event"
    },
    {
      "anonymous": false,
      "inputs": [
        {
          "indexed": false,
          "name": "ownerAddress",
          "type": "address"
        }
      ],
      "name": "RemovedOwner",
      "type": "event"
    },
    {
      "anonymous": false,
      "inputs": [
        {
          "indexed": false,
          "name": "sid",
          "type": "uint256"
        },
        {
          "indexed": false,
          "name": "storeName",
          "type": "string"
        },
        {
          "indexed": false,
          "name": "storeOwner",
          "type": "address"
        }
      ],
      "name": "StoreFrontAdded",
      "type": "event"
    },
    {
      "anonymous": false,
      "inputs": [
        {
          "indexed": false,
          "name": "pid",
          "type": "uint256"
        },
        {
          "indexed": false,
          "name": "productName",
          "type": "string"
        },
        {
          "indexed": false,
          "name": "price",
          "type": "uint256"
        },
        {
          "indexed": false,
          "name": "productQuantity",
          "type": "uint256"
        },
        {
          "indexed": false,
          "name": "sid",
          "type": "uint256"
        }
      ],
      "name": "ProductAdded",
      "type": "event"
    },
    {
      "anonymous": false,
      "inputs": [
        {
          "indexed": false,
          "name": "pid",
          "type": "uint256"
        },
        {
          "indexed": false,
          "name": "sid",
          "type": "uint256"
        }
      ],
      "name": "ProductRemoved",
      "type": "event"
    },
    {
      "anonymous": false,
      "inputs": [
        {
          "indexed": false,
          "name": "pid",
          "type": "uint256"
        },
        {
          "indexed": false,
          "name": "productName",
          "type": "string"
        },
        {
          "indexed": false,
          "name": "price",
          "type": "uint256"
        }
      ],
      "name": "ProductPriceChange",
      "type": "event"
    },
    {
      "anonymous": false,
      "inputs": [
        {
          "indexed": false,
          "name": "sid",
          "type": "uint256"
        },
        {
          "indexed": false,
          "name": "storeName",
          "type": "string"
        },
        {
          "indexed": false,
          "name": "storeOwner",
          "type": "address"
        },
        {
          "indexed": false,
          "name": "balance",
          "type": "uint256"
        }
      ],
      "name": "BalanceWithdrawn",
      "type": "event"
    },
    {
      "anonymous": false,
      "inputs": [
        {
          "indexed": false,
          "name": "pid",
          "type": "uint256"
        },
        {
          "indexed": false,
          "name": "sid",
          "type": "uint256"
        },
        {
          "indexed": false,
          "name": "totalPrice",
          "type": "uint256"
        },
        {
          "indexed": false,
          "name": "buyer",
          "type": "address"
        }
      ],
      "name": "ProductBought",
      "type": "event"
    },
    {
      "anonymous": false,
      "inputs": [
        {
          "indexed": true,
          "name": "previousOwner",
          "type": "address"
        }
      ],
      "name": "OwnershipRenounced",
      "type": "event"
    },
    {
      "anonymous": false,
      "inputs": [
        {
          "indexed": true,
          "name": "previousOwner",
          "type": "address"
        },
        {
          "indexed": true,
          "name": "newOwner",
          "type": "address"
        }
      ],
      "name": "OwnershipTransferred",
      "type": "event"
    },
    {
      "constant": false,
      "inputs": [
        {
          "name": "newAdmin",
          "type": "address"
        }
      ],
      "name": "addAdmin",
      "outputs": [],
      "payable": false,
      "stateMutability": "nonpayable",
      "type": "function"
    },
    {
      "constant": false,
      "inputs": [
        {
          "name": "adminAddress",
          "type": "address"
        }
      ],
      "name": "removeAdmin",
      "outputs": [],
      "payable": false,
      "stateMutability": "nonpayable",
      "type": "function"
    },
    {
      "constant": false,
      "inputs": [
        {
          "name": "ownerAddress",
          "type": "address"
        }
      ],
      "name": "addStoreOwner",
      "outputs": [],
      "payable": false,
      "stateMutability": "nonpayable",
      "type": "function"
    },
    {
      "constant": false,
      "inputs": [
        {
          "name": "ownerAddress",
          "type": "address"
        }
      ],
      "name": "removeStoreOwner",
      "outputs": [],
      "payable": false,
      "stateMutability": "nonpayable",
      "type": "function"
    },
    {
      "constant": true,
      "inputs": [
        {
          "name": "ownerAddress",
          "type": "address"
        }
      ],
      "name": "checkOwnerStatus",
      "outputs": [
        {
          "name": "",
          "type": "bool"
        }
      ],
      "payable": false,
      "stateMutability": "view",
      "type": "function"
    },
    {
      "constant": true,
      "inputs": [
        {
          "name": "adminAddress",
          "type": "address"
        }
      ],
      "name": "checkAdminStatus",
      "outputs": [
        {
          "name": "",
          "type": "bool"
        }
      ],
      "payable": false,
      "stateMutability": "view",
      "type": "function"
    },
    {
      "constant": false,
      "inputs": [
        {
          "name": "_storeName",
          "type": "string"
        }
      ],
      "name": "addStorefront",
      "outputs": [],
      "payable": false,
      "stateMutability": "nonpayable",
      "type": "function"
    },
    {
      "constant": true,
      "inputs": [
        {
          "name": "_sid",
          "type": "uint256"
        }
      ],
      "name": "getStoreBalance",
      "outputs": [
        {
          "name": "",
          "type": "uint256"
        }
      ],
      "payable": false,
      "stateMutability": "view",
      "type": "function"
    },
    {
      "constant": false,
      "inputs": [
        {
          "name": "_sid",
          "type": "uint256"
        }
      ],
      "name": "withdrawStoreBalance",
      "outputs": [],
      "payable": false,
      "stateMutability": "nonpayable",
      "type": "function"
    },
    {
      "constant": true,
      "inputs": [
        {
          "name": "_sid",
          "type": "uint256"
        }
      ],
      "name": "getStore",
      "outputs": [
        {
          "name": "",
          "type": "uint256"
        },
        {
          "name": "",
          "type": "string"
        },
        {
          "name": "",
          "type": "address"
        },
        {
          "name": "",
          "type": "uint256"
        }
      ],
      "payable": false,
      "stateMutability": "view",
      "type": "function"
    },
    {
      "constant": false,
      "inputs": [
        {
          "name": "_sid",
          "type": "uint256"
        },
        {
          "name": "_productName",
          "type": "string"
        },
        {
          "name": "_price",
          "type": "uint256"
        },
        {
          "name": "_productQuantity",
          "type": "uint256"
        }
      ],
      "name": "addProduct",
      "outputs": [],
      "payable": false,
      "stateMutability": "nonpayable",
      "type": "function"
    },
    {
      "constant": false,
      "inputs": [
        {
          "name": "_sid",
          "type": "uint256"
        },
        {
          "name": "_pid",
          "type": "uint256"
        }
      ],
      "name": "removeProduct",
      "outputs": [],
      "payable": false,
      "stateMutability": "nonpayable",
      "type": "function"
    },
    {
      "constant": false,
      "inputs": [
        {
          "name": "_sid",
          "type": "uint256"
        },
        {
          "name": "_pid",
          "type": "uint256"
        },
        {
          "name": "newPrice",
          "type": "uint256"
        }
      ],
      "name": "updatePrice",
      "outputs": [],
      "payable": false,
      "stateMutability": "nonpayable",
      "type": "function"
    },
    {
      "constant": false,
      "inputs": [
        {
          "name": "_sid",
          "type": "uint256"
        },
        {
          "name": "_pid",
          "type": "uint256"
        },
        {
          "name": "_quantity",
          "type": "uint256"
        }
      ],
      "name": "buyProduct",
      "outputs": [],
      "payable": true,
      "stateMutability": "payable",
      "type": "function"
    },
    {
      "constant": true,
      "inputs": [
        {
          "name": "_pid",
          "type": "uint256"
        }
      ],
      "name": "getProduct",
      "outputs": [
        {
          "name": "",
          "type": "uint256"
        },
        {
          "name": "",
          "type": "string"
        },
        {
          "name": "",
          "type": "uint256"
        },
        {
          "name": "",
          "type": "uint256"
        },
        {
          "name": "",
          "type": "uint256"
        }
      ],
      "payable": false,
      "stateMutability": "view",
      "type": "function"
    },
    {
      "constant": false,
      "inputs": [],
      "name": "destroy",
      "outputs": [],
      "payable": false,
      "stateMutability": "nonpayable",
      "type": "function"
    }
  ],
  "bytecode": "0x608060405234801561001057600080fd5b50336000806101000a81548173ffffffffffffffffffffffffffffffffffffffff021916908373ffffffffffffffffffffffffffffffffffffffff16021790555033600160006101000a81548173ffffffffffffffffffffffffffffffffffffffff021916908373ffffffffffffffffffffffffffffffffffffffff1602179055506001600360003373ffffffffffffffffffffffffffffffffffffffff1673ffffffffffffffffffffffffffffffffffffffff16815260200190815260200160002060006101000a81548160ff02191690831515021790555061269b806100f96000396000f300608060405260043610610154576000357c0100000000000000000000000000000000000000000000000000000000900463ffffffff16806302f9f99014610159578063057cc2a11461021b5780630f4361291461027657806315aaeb22146102b75780631785f53c146102e4578063429b62e514610327578063447280bd146103825780635287d535146103dd5780636174fdd1146104145780637048027514610457578063715018a61461049a57806379c66a46146104b15780637b410393146105125780637ebc56831461055357806383197ef0146105ae57806383403120146105c557806389ddb8f8146106ac5780638da5cb5b146106f75780639adeb5f11461074e578063b9db15b414610791578063beff957714610853578063c27ed2a214610887578063d4aac5fd1461090e578063f054bff7146109f5578063f2fde38b14610a5e578063f5074f4114610aa1575b600080fd5b34801561016557600080fd5b5061018460048036038101908080359060200190929190505050610ae4565b6040518086815260200180602001858152602001848152602001838152602001828103825286818151815260200191508051906020019080838360005b838110156101dc5780820151818401526020810190506101c1565b50505050905090810190601f1680156102095780820380516001836020036101000a031916815260200191505b50965050505050505060405180910390f35b34801561022757600080fd5b5061025c600480360381019080803573ffffffffffffffffffffffffffffffffffffffff169060200190929190505050610bb2565b604051808215151515815260200191505060405180910390f35b34801561028257600080fd5b506102b5600480360381019080803590602001909291908035906020019092919080359060200190929190505050610bd2565b005b3480156102c357600080fd5b506102e260048036038101908080359060200190929190505050610d42565b005b3480156102f057600080fd5b50610325600480360381019080803573ffffffffffffffffffffffffffffffffffffffff169060200190929190505050610f7d565b005b34801561033357600080fd5b50610368600480360381019080803573ffffffffffffffffffffffffffffffffffffffff169060200190929190505050611096565b604051808215151515815260200191505060405180910390f35b34801561038e57600080fd5b506103c3600480360381019080803573ffffffffffffffffffffffffffffffffffffffff1690602001909291905050506110b6565b604051808215151515815260200191505060405180910390f35b3480156103e957600080fd5b50610412600480360381019080803590602001909291908035906020019092919050505061110c565b005b34801561042057600080fd5b50610455600480360381019080803573ffffffffffffffffffffffffffffffffffffffff16906020019092919050505061129b565b005b34801561046357600080fd5b50610498600480360381019080803573ffffffffffffffffffffffffffffffffffffffff1690602001909291905050506113b8565b005b3480156104a657600080fd5b506104af6114d1565b005b3480156104bd57600080fd5b506104fc600480360381019080803573ffffffffffffffffffffffffffffffffffffffff169060200190929190803590602001909291905050506115d3565b6040518082815260200191505060405180910390f35b34801561051e57600080fd5b5061053d60048036038101908080359060200190929190505050611603565b6040518082815260200191505060405180910390f35b34801561055f57600080fd5b50610594600480360381019080803573ffffffffffffffffffffffffffffffffffffffff169060200190929190505050611695565b604051808215151515815260200191505060405180910390f35b3480156105ba57600080fd5b506105c36116eb565b005b3480156105d157600080fd5b506105f060048036038101908080359060200190929190505050611781565b60405180858152602001806020018473ffffffffffffffffffffffffffffffffffffffff1673ffffffffffffffffffffffffffffffffffffffff168152602001838152602001828103825285818151815260200191508051906020019080838360005b8381101561066e578082015181840152602081019050610653565b50505050905090810190601f16801561069b5780820380516001836020036101000a031916815260200191505b509550505050505060405180910390f35b3480156106b857600080fd5b506106e160048036038101908080359060200190929190803590602001909291905050506118ae565b6040518082815260200191505060405180910390f35b34801561070357600080fd5b5061070c6118de565b604051808273ffffffffffffffffffffffffffffffffffffffff1673ffffffffffffffffffffffffffffffffffffffff16815260200191505060405180910390f35b34801561075a57600080fd5b5061078f600480360381019080803573ffffffffffffffffffffffffffffffffffffffff169060200190929190505050611903565b005b34801561079d57600080fd5b506107bc60048036038101908080359060200190929190505050611a86565b6040518086815260200180602001858152602001848152602001838152602001828103825286818151815260200191508051906020019080838360005b838110156108145780820151818401526020810190506107f9565b50505050905090810190601f1680156108415780820380516001836020036101000a031916815260200191505b50965050505050505060405180910390f35b610885600480360381019080803590602001909291908035906020019092919080359060200190929190505050611bb0565b005b34801561089357600080fd5b5061090c60048036038101908080359060200190929190803590602001908201803590602001908080601f01602080910402602001604051908101604052809392919081815260200183838082843782019150505050505091929192908035906020019092919080359060200190929190505050611d70565b005b34801561091a57600080fd5b5061093960048036038101908080359060200190929190505050611f8a565b60405180858152602001806020018473ffffffffffffffffffffffffffffffffffffffff1673ffffffffffffffffffffffffffffffffffffffff168152602001838152602001828103825285818151815260200191508051906020019080838360005b838110156109b757808201518184015260208101905061099c565b50505050905090810190601f1680156109e45780820380516001836020036101000a031916815260200191505b509550505050505060405180910390f35b348015610a0157600080fd5b50610a5c600480360381019080803590602001908201803590602001908080601f0160208091040260200160405190810160405280939291908181526020018383808284378201915050505050509192919290505050612072565b005b348015610a6a57600080fd5b50610a9f600480360381019080803573ffffffffffffffffffffffffffffffffffffffff169060200190929190505050612306565b005b348015610aad57600080fd5b50610ae2600480360381019080803573ffffffffffffffffffffffffffffffffffffffff16906020019092919050505061236d565b005b600a602052806000526040600020600091509050806000015490806001018054600181600116156101000203166002900480601f016020809104026020016040519081016040528092919081815260200182805460018160011615610100020316600290048015610b965780601f10610b6b57610100808354040283529160200191610b96565b820191906000526020600020905b815481529060010190602001808311610b7957829003601f168201915b5050505050908060020154908060030154908060040154905085565b60046020528060005260406000206000915054906101000a900460ff1681565b823373ffffffffffffffffffffffffffffffffffffffff166008600083815260200190815260200160002060020160009054906101000a900473ffffffffffffffffffffffffffffffffffffffff1673ffffffffffffffffffffffffffffffffffffffff16141515610c4357600080fd5b81600a6000858152602001908152602001600020600301819055507f96b3b7c26fcfdd81060aff1de36436cac3068b48faff9ad9d34f3df84fe8e98e83600a6000868152602001908152602001600020600101846040518084815260200180602001838152602001828103825284818154600181600116156101000203166002900481526020019150805460018160011615610100020316600290048015610d2c5780601f10610d0157610100808354040283529160200191610d2c565b820191906000526020600020905b815481529060010190602001808311610d0f57829003601f168201915b505094505050505060405180910390a150505050565b803373ffffffffffffffffffffffffffffffffffffffff166008600083815260200190815260200160002060020160009054906101000a900473ffffffffffffffffffffffffffffffffffffffff1673ffffffffffffffffffffffffffffffffffffffff16141515610db357600080fd5b60006008600084815260200190815260200160002060030154111515610dd857600080fd5b600060086000848152602001908152602001600020600301819055503373ffffffffffffffffffffffffffffffffffffffff166108fc60086000858152602001908152602001600020600301549081150290604051600060405180830381858888f19350505050158015610e50573d6000803e3d6000fd5b507fb389f5c7286400f16f2aa6da1b08741a24b0267fddae09792aec122a7157f64b826008600085815260200190815260200160002060010133600860008781526020019081526020016000206003015460405180858152602001806020018473ffffffffffffffffffffffffffffffffffffffff1673ffffffffffffffffffffffffffffffffffffffff168152602001838152602001828103825285818154600181600116156101000203166002900481526020019150805460018160011615610100020316600290048015610f685780601f10610f3d57610100808354040283529160200191610f68565b820191906000526020600020905b815481529060010190602001808311610f4b57829003601f168201915b50509550505050505060405180910390a15050565b6000809054906101000a900473ffffffffffffffffffffffffffffffffffffffff1673ffffffffffffffffffffffffffffffffffffffff163373ffffffffffffffffffffffffffffffffffffffff16141515610fd857600080fd5b6000600360008373ffffffffffffffffffffffffffffffffffffffff1673ffffffffffffffffffffffffffffffffffffffff16815260200190815260200160002060006101000a81548160ff0219169083151502179055507f3137a7fedbfedb7895dfa5a6812a4566dae9ded68d00aeec13c6ed1fa84a1c8081604051808273ffffffffffffffffffffffffffffffffffffffff1673ffffffffffffffffffffffffffffffffffffffff16815260200191505060405180910390a150565b60036020528060005260406000206000915054906101000a900460ff1681565b6000600360008373ffffffffffffffffffffffffffffffffffffffff1673ffffffffffffffffffffffffffffffffffffffff16815260200190815260200160002060009054906101000a900460ff169050919050565b6000823373ffffffffffffffffffffffffffffffffffffffff166008600083815260200190815260200160002060020160009054906101000a900473ffffffffffffffffffffffffffffffffffffffff1673ffffffffffffffffffffffffffffffffffffffff1614151561117f57600080fd5b600091505b6009600085815260200190815260200160002080549050821015611295578260096000868152602001908152602001600020838154811015156111c357fe5b906000526020600020015414156112885760096000858152602001908152602001600020828154811015156111f457fe5b9060005260206000200160009055600a600084815260200190815260200160002060008082016000905560018201600061122e9190612513565b60028201600090556003820160009055600482016000905550507fd647384cccbd8b477a7b02b9e866072937e9a23b473b9de13fc0c6cb1d392a0a8385604051808381526020018281526020019250505060405180910390a15b8180600101925050611184565b50505050565b60011515600360003373ffffffffffffffffffffffffffffffffffffffff1673ffffffffffffffffffffffffffffffffffffffff16815260200190815260200160002060009054906101000a900460ff1615151415156112fa57600080fd5b6000600460008373ffffffffffffffffffffffffffffffffffffffff1673ffffffffffffffffffffffffffffffffffffffff16815260200190815260200160002060006101000a81548160ff0219169083151502179055507ff8d49fc529812e9a7c5c50e69c20f0dccc0db8fa95c98bc58cc9a4f1c1299eaf81604051808273ffffffffffffffffffffffffffffffffffffffff1673ffffffffffffffffffffffffffffffffffffffff16815260200191505060405180910390a150565b6000809054906101000a900473ffffffffffffffffffffffffffffffffffffffff1673ffffffffffffffffffffffffffffffffffffffff163373ffffffffffffffffffffffffffffffffffffffff1614151561141357600080fd5b6001600360008373ffffffffffffffffffffffffffffffffffffffff1673ffffffffffffffffffffffffffffffffffffffff16815260200190815260200160002060006101000a81548160ff0219169083151502179055507f7849194239ab1d31b991b5436d81370256505cf25eaafbcccbc66acd1189691681604051808273ffffffffffffffffffffffffffffffffffffffff1673ffffffffffffffffffffffffffffffffffffffff16815260200191505060405180910390a150565b6000809054906101000a900473ffffffffffffffffffffffffffffffffffffffff1673ffffffffffffffffffffffffffffffffffffffff163373ffffffffffffffffffffffffffffffffffffffff1614151561152c57600080fd5b6000809054906101000a900473ffffffffffffffffffffffffffffffffffffffff1673ffffffffffffffffffffffffffffffffffffffff167ff8df31144d9c2f0f6b59d69b8b98abd5459d07f2742c4df920b25aae33c6482060405160405180910390a260008060006101000a81548173ffffffffffffffffffffffffffffffffffffffff021916908373ffffffffffffffffffffffffffffffffffffffff160217905550565b6007602052816000526040600020818154811015156115ee57fe5b90600052602060002001600091509150505481565b6000813373ffffffffffffffffffffffffffffffffffffffff166008600083815260200190815260200160002060020160009054906101000a900473ffffffffffffffffffffffffffffffffffffffff1673ffffffffffffffffffffffffffffffffffffffff1614151561167657600080fd5b6008600084815260200190815260200160002060030154915050919050565b6000600460008373ffffffffffffffffffffffffffffffffffffffff1673ffffffffffffffffffffffffffffffffffffffff16815260200190815260200160002060009054906101000a900460ff169050919050565b6000809054906101000a900473ffffffffffffffffffffffffffffffffffffffff1673ffffffffffffffffffffffffffffffffffffffff163373ffffffffffffffffffffffffffffffffffffffff1614151561174657600080fd5b600160009054906101000a900473ffffffffffffffffffffffffffffffffffffffff1673ffffffffffffffffffffffffffffffffffffffff16ff5b600060606000806008600086815260200190815260200160002060000154600860008781526020019081526020016000206001016008600088815260200190815260200160002060020160009054906101000a900473ffffffffffffffffffffffffffffffffffffffff166008600089815260200190815260200160002060030154828054600181600116156101000203166002900480601f0160208091040260200160405190810160405280929190818152602001828054600181600116156101000203166002900480156118985780601f1061186d57610100808354040283529160200191611898565b820191906000526020600020905b81548152906001019060200180831161187b57829003601f168201915b5050505050925093509350935093509193509193565b6009602052816000526040600020818154811015156118c957fe5b90600052602060002001600091509150505481565b6000809054906101000a900473ffffffffffffffffffffffffffffffffffffffff1681565b60011515600360003373ffffffffffffffffffffffffffffffffffffffff1673ffffffffffffffffffffffffffffffffffffffff16815260200190815260200160002060009054906101000a900460ff16151514151561196257600080fd5b6001600460008373ffffffffffffffffffffffffffffffffffffffff1673ffffffffffffffffffffffffffffffffffffffff16815260200190815260200160002060006101000a81548160ff02191690831515021790555060028190806001815401808255809150509060018203906000526020600020016000909192909190916101000a81548173ffffffffffffffffffffffffffffffffffffffff021916908373ffffffffffffffffffffffffffffffffffffffff160217905550507f9465fa0c962cc76958e6373a993326400c1c94f8be2fe3a952adfa7f60b2ea2681604051808273ffffffffffffffffffffffffffffffffffffffff1673ffffffffffffffffffffffffffffffffffffffff16815260200191505060405180910390a150565b600060606000806000600a600087815260200190815260200160002060000154600a6000888152602001908152602001600020600101600a600089815260200190815260200160002060020154600a60008a815260200190815260200160002060030154600a60008b815260200190815260200160002060040154838054600181600116156101000203166002900480601f016020809104026020016040519081016040528092919081815260200182805460018160011615610100020316600290048015611b965780601f10611b6b57610100808354040283529160200191611b96565b820191906000526020600020905b815481529060010190602001808311611b7957829003601f168201915b505050505093509450945094509450945091939590929450565b6000828280600a60008481526020019081526020016000206002015410151515611bd957600080fd5b8484600081600a600085815260200190815260200160002060030154029050803410151515611c0757600080fd5b87876000808a600a60008e815260200190815260200160002060020160008282540392505081905550611c598b600a60008f8152602001908152602001600020600301546123e190919063ffffffff16565b995089600860008f8152602001908152602001600020600301600082825401925050819055507fff688dc3d8646cd084c861b7c66d55fe86bd315a70ba0e97c633d052bb814b2b8c8e8c33604051808581526020018481526020018381526020018273ffffffffffffffffffffffffffffffffffffffff1673ffffffffffffffffffffffffffffffffffffffff16815260200194505050505060405180910390a182600a60008681526020019081526020016000206003015402915081340390503373ffffffffffffffffffffffffffffffffffffffff166108fc829081150290604051600060405180830381858888f19350505050158015611d60573d6000803e3d6000fd5b5050505050505050505050505050565b6000611d7a61255b565b853373ffffffffffffffffffffffffffffffffffffffff166008600083815260200190815260200160002060020160009054906101000a900473ffffffffffffffffffffffffffffffffffffffff1673ffffffffffffffffffffffffffffffffffffffff16141515611deb57600080fd5b600660008154809291906001019190505550600654925060a06040519081016040528084815260200187815260200186815260200185815260200188815250915081600a6000858152602001908152602001600020600082015181600001556020820151816001019080519060200190611e6692919061258b565b50604082015181600201556060820151816003015560808201518160040155905050600960008881526020019081526020016000208390806001815401808255809150509060018203906000526020600020016000909192909190915055507f1e9ea568bc9c12f61e1906e20d1fdd96d2d8487fe9c3d58fff2af8d15c7316cb838787878b6040518086815260200180602001858152602001848152602001838152602001828103825286818151815260200191508051906020019080838360005b83811015611f43578082015181840152602081019050611f28565b50505050905090810190601f168015611f705780820380516001836020036101000a031916815260200191505b50965050505050505060405180910390a150505050505050565b6008602052806000526040600020600091509050806000015490806001018054600181600116156101000203166002900480601f01602080910402602001604051908101604052809291908181526020018280546001816001161561010002031660029004801561203c5780601f106120115761010080835404028352916020019161203c565b820191906000526020600020905b81548152906001019060200180831161201f57829003601f168201915b5050505050908060020160009054906101000a900473ffffffffffffffffffffffffffffffffffffffff16908060030154905084565b600061207c61260b565b60011515600460003373ffffffffffffffffffffffffffffffffffffffff1673ffffffffffffffffffffffffffffffffffffffff16815260200190815260200160002060009054906101000a900460ff1615151415156120db57600080fd5b60056000815480929190600101919050555060055491506080604051908101604052808381526020018481526020013373ffffffffffffffffffffffffffffffffffffffff16815260200160008152509050600760003373ffffffffffffffffffffffffffffffffffffffff1673ffffffffffffffffffffffffffffffffffffffff1681526020019081526020016000208160000151908060018154018082558091505090600182039060005260206000200160009091929091909150555080600860008481526020019081526020016000206000820151816000015560208201518160010190805190602001906121d492919061258b565b5060408201518160020160006101000a81548173ffffffffffffffffffffffffffffffffffffffff021916908373ffffffffffffffffffffffffffffffffffffffff160217905550606082015181600301559050507f7a545bd0fde850e19dfc37ce5a3c889c66920228ec7c9291bda52df0a97e614d82843360405180848152602001806020018373ffffffffffffffffffffffffffffffffffffffff1673ffffffffffffffffffffffffffffffffffffffff168152602001828103825284818151815260200191508051906020019080838360005b838110156122c55780820151818401526020810190506122aa565b50505050905090810190601f1680156122f25780820380516001836020036101000a031916815260200191505b5094505050505060405180910390a1505050565b6000809054906101000a900473ffffffffffffffffffffffffffffffffffffffff1673ffffffffffffffffffffffffffffffffffffffff163373ffffffffffffffffffffffffffffffffffffffff1614151561236157600080fd5b61236a81612419565b50565b6000809054906101000a900473ffffffffffffffffffffffffffffffffffffffff1673ffffffffffffffffffffffffffffffffffffffff163373ffffffffffffffffffffffffffffffffffffffff161415156123c857600080fd5b8073ffffffffffffffffffffffffffffffffffffffff16ff5b6000808314156123f45760009050612413565b818302905081838281151561240557fe5b0414151561240f57fe5b8090505b92915050565b600073ffffffffffffffffffffffffffffffffffffffff168173ffffffffffffffffffffffffffffffffffffffff161415151561245557600080fd5b8073ffffffffffffffffffffffffffffffffffffffff166000809054906101000a900473ffffffffffffffffffffffffffffffffffffffff1673ffffffffffffffffffffffffffffffffffffffff167f8be0079c531659141344cd1fd0a4f28419497f9722a3daafe3b4186f6b6457e060405160405180910390a3806000806101000a81548173ffffffffffffffffffffffffffffffffffffffff021916908373ffffffffffffffffffffffffffffffffffffffff16021790555050565b50805460018160011615610100020316600290046000825580601f106125395750612558565b601f016020900490600052602060002090810190612557919061264a565b5b50565b60a06040519081016040528060008152602001606081526020016000815260200160008152602001600081525090565b828054600181600116156101000203166002900490600052602060002090601f016020900481019282601f106125cc57805160ff19168380011785556125fa565b828001600101855582156125fa579182015b828111156125f95782518255916020019190600101906125de565b5b509050612607919061264a565b5090565b6080604051908101604052806000815260200160608152602001600073ffffffffffffffffffffffffffffffffffffffff168152602001600081525090565b61266c91905b80821115612668576000816000905550600101612650565b5090565b905600a165627a7a723058201db3a3171d6d5bf29a5757db3d1271d644f593ecfc677a52405ae29eae62c32b0029",
  "source": "pragma solidity ^0.4.23;\n\nimport \"../node_modules/openzeppelin-solidity/contracts/ownership/Ownable.sol\";\nimport \"../node_modules/openzeppelin-solidity/contracts/math/SafeMath.sol\";\nimport \"../node_modules/openzeppelin-solidity/contracts/lifecycle/Destructible.sol\";\n\n/** @dev This is the Marketplace contract\n  * Admins, store owners, shoppers interact with contract to maintain and use the Marketplace\n  * Ownable, SafeMath, Destructible from openzeppelin\n\n=============================ADMIN FUNCTIONALITY====================================\nThis is where admin and store owner rights are given and maintained\n  */\n\ncontract Marketplace is Ownable, Destructible {\n\n  /** @dev declare owner of contract variable\n    * declare array of approved store owners\n    */\n  address owner;\n  address[] approvedStoreOwners;\n\n  /** @dev constructor that sets owner to msg.sender upon deployment of contracts\n    * msg.sender is also set to an admin in the Marketplace\n    */\n  constructor () public {\n    owner = msg.sender;\n    admins[msg.sender] = true;\n  }\n\n  /** @dev mapping of addresss to true/false to record whether or not they are admins/store owners\n    */\n  mapping (address => bool) public admins;\n  mapping (address => bool) public storeOwners;\n\n  /** @dev modifiers that require users calling a function to be an admin/store owner on the Marketplace\n    */\n  modifier isAdmin() {\n    require(admins[msg.sender] == true);\n    _;\n  }\n\n  modifier isStoreOwner() {\n    require(storeOwners[msg.sender] == true);\n    _;\n  }\n\n  event AddedAdmin(address adminAddress);\n  event RemovedAdmin(address adminAddress);\n  event AddedOwner(address ownerAddress);\n  event RemovedOwner(address ownerAddress);\n\n  /** @dev sets a new addresss as an admin and emits event respective to function\n    * @notice can only be called by owner of the Marketplace\n    * @param newAdmin The address of the new admin\n    */\n  function addAdmin(address newAdmin) onlyOwner public {\n    admins[newAdmin] = true;\n    emit AddedAdmin(newAdmin);\n  }\n\n  /** @dev turns off admin privileges for a certain addresss and emits event respective to function\n    * @param adminAddress The address having admin rights revoked\n    * @notice can only be called by owner of Marketplace\n    */\n  function removeAdmin(address adminAddress) onlyOwner public {\n    admins[adminAddress] = false;\n    emit RemovedAdmin(adminAddress);\n  }\n\n  /** @dev sets a new address as a store owner and emits event respective to function\n    * @dev adds address\n    * @param ownerAddress The address of new store owner\n    * @notice can only be called by an admin\n    */\n  function addStoreOwner(address ownerAddress) isAdmin public {\n    storeOwners[ownerAddress] = true;\n    approvedStoreOwners.push(ownerAddress);\n    emit AddedOwner(ownerAddress);\n  }\n\n  /** @dev revokes store owner privileges and emits event respective to function\n    * @param ownerAddress The address of store owner losing privileges\n    */\n  function removeStoreOwner(address ownerAddress) isAdmin public {\n    storeOwners[ownerAddress] = false;\n    emit RemovedOwner(ownerAddress);\n  }\n\n  /** @dev used to test store owner status\n    * @param ownerAddress Address being tested for owner privileges\n    * @return true/false\n    */\n  function checkOwnerStatus(address ownerAddress) constant public returns(bool) {\n    return storeOwners[ownerAddress];\n  }\n\n  /** @dev used to test Admin status\n    * @param adminAddress Address being tested for admin privileges\n    * @return true/false\n    */\n  function checkAdminStatus(address adminAddress) constant public returns(bool) {\n    return admins[adminAddress];\n  }\n\n/* ====================================MARKETPLACE FUNCTIONALITY =============================\nThis portion of the contract is related to the user functionality of the Marketplace\n\nSafeMath is used for uint from openzeppelin\nstoreCount and productCount declared*/\n\n  uint storeCount;\n  uint productCount;\n  using SafeMath for uint;\n\n  /** @dev struct that stores Storefront data\n    * @param sid Storefront ID\n    * @param storeName Store Name\n    * @param storeOwner Address of Store Owner\n    * @param storeBalance Balance the store currently has\n    */\n  struct Storefront {\n    uint sid;\n    string storeName;\n    address storeOwner;\n    uint storeBalance;\n  }\n\n  /** @dev struct that stores Product data\n    * @param pid Product ID\n    * @param productName Product Name\n    * @param productQuantity Quantity of the Product\n    * @param price Price of the product\n    * @param sid Storefront ID of store the Product belongs to\n    */\n  struct Product {\n    uint pid;\n    string productName;\n    uint productQuantity;\n    uint price;\n    uint sid;\n  }\n\n  // Events related to store functionality\n  event StoreFrontAdded(uint sid, string storeName, address storeOwner);\n  event ProductAdded(uint pid, string productName, uint price, uint productQuantity, uint sid);\n  event ProductRemoved(uint pid,uint sid);\n  event ProductPriceChange(uint pid, string productName, uint price);\n  event BalanceWithdrawn(uint sid, string storeName, address storeOwner, uint balance);\n  event ProductBought(uint pid, uint sid, uint totalPrice, address buyer);\n\n  // Mapping of an array of storefront IDs to their owner address\n  mapping (address => uint[]) public storefrontIDsByOwnerAddress;\n  // Mapping of storefront IDs to the Storefront struct\n  mapping (uint => Storefront) public storefrontByIDs;\n  // Mapping of an array of product IDs to the respective storefront ID\n  mapping (uint => uint[]) public productListBySIDs;\n  // Mapping of an array of product IDs to the Product struct\n  mapping (uint => Product) public productByIDs;\n\n  /** @dev modifier that requires msg.sender owns the store\n    * @param _sid Storefront ID of store\n    */\n  modifier ownsStore(uint _sid) {\n    require(storefrontByIDs[_sid].storeOwner == msg.sender);\n    _;\n  }\n\n  /** @dev modifier that requires quantity being bought is available in the store\n    * @param _pid Product ID of product being bought\n    * @param _quantity Quantity of product being bought\n    */\n  modifier enoughToSell(uint _pid, uint _quantity) {\n    require(productByIDs[_pid].productQuantity >= _quantity);\n    _;\n  }\n\n  /** @dev modifier that requires msg.valye to be greater than or equal to total price\n  * @param _pid Product ID of product being bought\n  * @param _quantity Quantity of product being bought\n  */\n  modifier paidEnough(uint _pid, uint _quantity) {\n    uint totalPrice = productByIDs[_pid].price * _quantity;\n    require(msg.value >= totalPrice);\n    _;\n  }\n\n  /** @dev modifier that refunds buyer if too much ether sent\n  * @param _pid Product ID of product being bought\n  * @param _quantity Quantity of product being bought\n  */\n  modifier checkValue(uint _pid, uint _quantity) {\n    //refund them after pay for item (why it is before, _ checks for logic before func)\n    _;\n    uint totalPrice = productByIDs[_pid].price * _quantity;\n    uint amountToRefund = msg.value - totalPrice;\n    msg.sender.transfer(amountToRefund);\n  }\n\n  /** @dev opens new storefront and can only be called by a store owner\n    * @dev\n    * @param _storeName Name of the new storefront\n    */\n  function addStorefront(string _storeName) public isStoreOwner() {\n    storeCount++;\n    uint sid = storeCount;\n    Storefront memory newStorefront = Storefront(sid, _storeName, msg.sender, 0);\n    storefrontIDsByOwnerAddress[msg.sender].push(newStorefront.sid);\n    storefrontByIDs[sid] = newStorefront;\n    emit StoreFrontAdded(sid, _storeName, msg.sender);\n  }\n\n  /** @dev gets balance of the storefront and can only be called by the owner of the Storefront\n    * @param _sid storefront ID\n    * @return Balance of the storefront\n    */\n  function getStoreBalance(uint _sid) constant public ownsStore(_sid) returns(uint) {\n    return storefrontByIDs[_sid].storeBalance;\n  }\n\n  /** @dev withdraw balance of storefront and can only be called by owner of the Storefront\n    * @param _sid Storefront ID of storefront being withdrawn from\n    */\n  function withdrawStoreBalance(uint _sid) public ownsStore(_sid) {\n    require(storefrontByIDs[_sid].storeBalance > 0);\n    storefrontByIDs[_sid].storeBalance = 0;\n    msg.sender.transfer(storefrontByIDs[_sid].storeBalance);\n    emit BalanceWithdrawn(_sid, storefrontByIDs[_sid].storeName, msg.sender, storefrontByIDs[_sid].storeBalance);\n\n  }\n\n  /** @dev returns all store information\n    * @param _sid storefront ID\n    * @return sid, store name, store owner, store balance\n    */\n  function getStore(uint _sid) constant public returns (uint, string, address, uint) {\n    return(storefrontByIDs[_sid].sid,\n           storefrontByIDs[_sid].storeName,\n           storefrontByIDs[_sid].storeOwner,\n           storefrontByIDs[_sid].storeBalance);\n  }\n\n  /** @dev adds product to storefront, assigns pid to product, and adds product to array of products by storefront\n    * @dev can only be called by store owner\n    * @param _sid storefront ID\n    * @param _productName name of product\n    * @param _price price of product\n    * @param _productQuantity quantity of product\n    */\n  function addProduct(uint _sid, string _productName, uint _price, uint _productQuantity) public ownsStore(_sid) {\n    productCount++;\n    uint pid = productCount;\n    Product memory newProduct = Product(pid, _productName, _price, _productQuantity, _sid);\n    productByIDs[pid] = newProduct;\n    productListBySIDs[_sid].push(pid);\n    emit ProductAdded(pid, _productName, _price, _productQuantity, _sid);\n  }\n\n  /** @dev removes product from storefront and call only be called by store owener\n    * @dev loops through array of products by storefront ID and deletes the one matching product ID\n    * @param _sid storefront ID\n    * @param _pid product ID\n    */\n  function removeProduct(uint _sid, uint _pid) public ownsStore(_sid) {\n    for(uint index=0; index < productListBySIDs[_sid].length; index++) {\n      if(productListBySIDs[_sid][index] == _pid) {\n        delete productListBySIDs[_sid][index];\n        delete productByIDs[_pid];\n        emit ProductRemoved(_pid, _sid);\n      }\n    }\n  }\n\n  /** @dev update price of product based on product ID and can only be called by store owner\n    * @param _sid storefront ID\n    * @param _pid product ID\n    * @param newPrice new price of product\n    */\n  function updatePrice(uint _sid, uint _pid, uint newPrice) ownsStore(_sid) public {\n    productByIDs[_pid].price = newPrice;\n    emit ProductPriceChange(_pid, productByIDs[_pid].productName, newPrice);\n  }\n\n  /** @dev allow shopper to buy product and uses modifiers to check that quantity is enough, buyer paid enough\n            and will be refunded if overpaid\n    * @dev store balance is increased and quantity left on storefront is decreased\n    * @param _sid storefront ID\n    * @param _pid product ID\n    * @param _quantity quantity buyer wants\n    */\n  function buyProduct(uint _sid, uint _pid, uint _quantity)\n  public payable\n  enoughToSell(_pid, _quantity) paidEnough(_pid, _quantity) checkValue(_pid, _quantity) {\n    productByIDs[_pid].productQuantity -= _quantity;\n    uint totalPrice = productByIDs[_pid].price.mul(_quantity);\n    storefrontByIDs[_sid].storeBalance += totalPrice;\n    emit ProductBought(_pid, _sid, totalPrice, msg.sender);\n  }\n\n  /** @dev gets all product information\n    * @param _pid product ID\n    * @return pid, product name, product quantity, price, sid\n    */\n  function getProduct(uint _pid) constant public returns (uint, string, uint, uint, uint) {\n    return (productByIDs[_pid].pid,\n            productByIDs[_pid].productName,\n            productByIDs[_pid].productQuantity,\n            productByIDs[_pid].price,\n            productByIDs[_pid].sid);\n  }\n\n  function destroy() public onlyOwner {\n    selfdestruct(owner);\n  }\n\n}\n",
  "sourcePath": "/home/bear/projects/marketplace/contracts/Marketplace.sol",
  "compiler": {
    "name": "solc",
    "version": "0.4.24+commit.e67f0147.Emscripten.clang"
  },
  "schemaVersion": "2.0.1",
  "updatedAt": "2018-08-26T07:41:30.227Z"
}